:100000000C949B000C94C3000C94C3000C94C3008C
:100010000C94C3000C94C3000C94C3000C94C30054
:100020000C94C3000C94C3000C94C2080C945407A5
:100030000C94C3000C94C3000C94C3000C94C30034
:100040000C94C3000C94C3000C94C3000C94C30024
:100050000C94C3000C94C3000C94C3000C9489024C
:100060000C94C3000C94C3000C94C3000C94C30004
:100070000C94C3000C94C3000C94C3000C94C300F4
:100080000C94C3000C94C3000C94C3000C94C300E4
:100090000C94C3000C94C3000C94C3000C94C300D4
:1000A0000C94C3000C94C3000C94C300080B000212
:1000B0000202010009040000010202000005240000
:1000C0001001052401010104240206052406000193
:1000D0000705810310004009040100020A00000026
:1000E00007050202400000070583024000001201DC
:1000F0000002EF02014041233680000101020301AA
:10010000120100020000004041233680000101027C
:10011000030141726475696E6F204C4C430041725B
:100120006475696E6F204C656F6E6172646F000458
:1001300003090400760411241FBECFEFDAE0DEBF0E
:10014000CDBF11E0A0E0B1E0ECE3F4E102C0059026
:100150000D92A03AB107D9F722E0A0EAB1E001C0C0
:100160001D92AF34B207E1F711E0C6E3D1E004C05D
:100170002297FE010E94180AC433D107C9F70E94D2
:1001800094040C941C0A0C9400000C94D3020F935A
:100190001F93CF93DF93EC01662359F00E94D302A3
:1001A00069837A838B839C83DF91CF911F910F9119
:1001B00008950E94D30209811A812B813C81601B22
:1001C000710B820B930B623371058105910530F73A
:1001D00063E070E080E090E00E940203EACF60E01C
:1001E0000C94C700CF92DF92EF92FF920F931F9370
:1001F000CF93DF9300D000D0CDB7DEB78C017B0169
:10020000FC0172AB61AB8BE1C82ED12CC7012983F5
:100210003A834B835C830E94670429813A814B8136
:100220005C81811113C0F1E0CF1AD10879F064E646
:1002300070E080E090E029833A834B835C830E94E6
:1002400002035C814B813A812981E0CFBA01A90187
:10025000F80181A992A90F900F900F900F90DF9154
:10026000CF911F910F91FF90EF90DF90CF900C9462
:100270006104FC0113AA14AA15AA16AA11821282FB
:1002800013821482411551056105710521F0CB01DE
:10029000BA010C94020308951F93CF93DF93EC01EE
:1002A000162F63E171E089A99AA90E94BD044AE072
:1002B00050E0612F89A99AA90E9425056AE171E0A1
:1002C00089A99AA90E94BD0462E370E080E090E0F1
:1002D000DF91CF911F910C9402031F93CF93DF9373
:1002E000EC01162F8D81882389F189A99AA9DC0157
:1002F000ED91FC910480F581E02D0995892BA9F3FE
:1003000007C02637310519F12835310509F41D825A
:1003100089A99AA9DC01ED91FC910480F581E02D79
:1003200009951816190694F489A99AA9DC01ED918A
:10033000FC910680F781E02D09959C013327233637
:100340003105F9F6612FCE010E944C0183E6DF9161
:10035000CF911F9108950F931F93CF93DF931F9217
:10036000CDB7DEB78C01662349F081E0F8018583C3
:1003700060E0C80149830E946D014981F80145830D
:100380000F90DF91CF911F910F91089540ED57E0AD
:1003900060E070E080EA91E00E94390120E032ECF8
:1003A00041E050E068EE71E080EA91E00E94F200E6
:1003B00080EA91E00E94EF006BE671E08091D1014C
:1003C0009091D2010E94BD046AE070E080E090E06C
:1003D0000E94020341E060E080EA91E00C94AB01EE
:1003E000CF92DF92EF92FF920F931F930E94D3025E
:1003F000672B682B692B41F40E94D3026230710590
:100400008105910508F47EC080EA91E00E94C50054
:100410006093D7017093D8018093D9019093DA014A
:100420000091DB011091DC012091DD013091DE01B2
:10043000601771078207930740F46093DB017093A4
:10044000DC018093DD019093DE010091DB011091CE
:10045000DC012091DD013091DE016B017C01C01ACD
:10046000D10AE20AF30A970186010A3F1105210524
:10047000310508F447C06093DB017093DC01809381
:10048000DD019093DE0180EA91E00E94EF006DE7CC
:1004900071E08091D1019091D2010E94BD0465E884
:1004A00071E08091D1019091D2010E94BD040E941F
:1004B000D302AB01BC012AE030E08091D1019091E0
:1004C000D2010E94180567E871E08091D1019091F6
:1004D000D2010E94BD0465E070E080E090E00E94DF
:1004E00002036AE070E080E090E00E94020361E0B5
:1004F00080EA91E01F910F91FF90EF90DF90CF90F5
:100500000C946D011F910F91FF90EF90DF90CF90B1
:1005100008951F920F920FB60F9211242F933F93BD
:100520008F939F93AF93BF938091E0019091E101EE
:10053000A091E201B091E3013091DF0123E0230FAC
:100540002D3720F40196A11DB11D05C026E8230F0B
:100550000296A11DB11D2093DF018093E0019093CD
:10056000E101A093E201B093E3018091E401909155
:10057000E501A091E601B091E7010196A11DB11D31
:100580008093E4019093E501A093E601B093E70125
:10059000BF91AF919F918F913F912F910F900FBE7F
:1005A0000F901F9018952FB7F8946091E00170910B
:1005B000E1018091E2019091E3012FBF08953FB7DF
:1005C000F8948091E4019091E501A091E601B09149
:1005D000E70126B5A89B05C02F3F19F00196A11D84
:1005E000B11D3FBF6627782F892F9A2F620F711D8B
:1005F000811D911D42E0660F771F881F991F4A9544
:10060000D1F70895CF92DF92EF92FF92CF93DF93CD
:100610006B017C010E94DF02EB01C114D104E104F3
:10062000F10489F00E9458090E94DF026C1B7D0BC7
:10063000683E734090F381E0C81AD108E108F108E0
:10064000C851DC4FEACFDF91CF91FF90EF90DF9060
:10065000CF900895789484B5826084BD84B581601C
:1006600084BD85B5826085BD85B5816085BDEEE6BA
:10067000F0E0808181608083E1E8F0E01082808199
:1006800082608083808181608083E0E8F0E0808107
:1006900081608083E1E9F0E08081826080838081F5
:1006A00081608083E0E9F0E0808181608083E1EC1B
:1006B000F0E080818460808380818260808380819B
:1006C00081608083E3ECF0E0808181608083E0ECF6
:1006D000F0E0808182608083E2ECF0E080818160E4
:1006E0008083EAE7F0E0808184608083808182609B
:1006F0008083808181608083808180688083089589
:10070000CF93DF931F92CDB7DEB76983DC01ED9104
:10071000FC910280F381E02D41E050E0BE016F5F6B
:100720007F4F09950F90DF91CF910895CF93DF937D
:10073000EC018C859D8597FF05C082E00E943D06F7
:100740009D878C878C859D85DF91CF91089583E06F
:100750000C94B808FC018485958597FD06C082E05D
:100760000E94E50590E00196089582E00E94E5056B
:1007700090E00895FC018485958597FD05C02FEFD5
:100780003FEF35872487089582E00C943D06CF9390
:10079000DF93EC0180910B01882331F083E00E940C
:1007A0006E061816190634F081E090E09B838A8368
:1007B00080E090E0DF91CF910895FC0120812E5FD1
:1007C000208342E450E06CEA70E080E80C94090772
:1007D000FC0121818081813A59F4213209F05CC009
:1007E00047E050E064E071E080E00E94090767C0E4
:1007F000813209F051C0233289F4838190E0982F2F
:1008000088273281832BA0E0B0E080930001909391
:100810000101A0930201B09303010FC0203239F40B
:1008200067E070E084E091E00E943A070AC022325B
:1008300021F4828180930B0104C02D7F203209F0C6
:100840003EC08091040190910501A0910601B091F4
:100850000701803B9440A105B10501F580910B0192
:1008600080FD1CC080910008909101089093FF0AC0
:100870008093FE0A87E797E790930108809300082A
:100880002BE088E190E00FB6F894A8958093600083
:100890000FBE2093600013C080E0089588E10FB67A
:1008A000F89480936000109260000FBEA89580912C
:1008B000FE0A9091FF0A909301088093000881E05E
:1008C00008952FEF3FEFFC01358724870895CF93DC
:1008D000C0910B016AE070E080E090E00E940203AA
:1008E00081E0C11101C080E0CF9108951092EB0129
:1008F0001092EA0188EE93E0A0E0B0E08093EC0172
:100900009093ED01A093EE01B093EF0184E991E0A3
:100910009093E9018093E8018FEF9FEF9093F501A9
:100920008093F401089508950E942A030E9493047D
:1009300088E392E00E9445090E94C601C0E0D0E031
:100940000E94F0012097E1F30E940000F9CF6115A9
:10095000710581F0DB010D900020E9F7AD014150F8
:100960005109461B570BDC01ED91FC910280F3818C
:10097000E02D099480E090E008950C94A7048F92F4
:100980009F92AF92BF92CF92DF92EF92FF920F931E
:100990001F93CF93DF93CDB7DEB7A1970FB6F8942F
:1009A000DEBF0FBECDBF7C01C42EE52FCB01D22E02
:1009B00019A221E02D1510F02AE0D22E8E010F5D34
:1009C0001F4F8D2C912CA12CB12C6C2D7E2FA501AD
:1009D00094010E94F4098C2DD29E8019112401509B
:1009E00011098A3014F4805D01C0895CF8018083AC
:1009F000211531054105510521F0C22EE32FCA0111
:100A0000E4CFB801C7010E94A704A1960FB6F894DD
:100A1000DEBF0FBECDBFDF91CF911F910F91FF9031
:100A2000EF90DF90CF90BF90AF909F908F90089500
:100A30002115310541F4DC01ED91FC910190F0812B
:100A4000E02D642F09940C94BF049A01462F50E0C6
:100A500060E070E00C941805615030F02091F100D6
:100A6000FC0120830196F8CF289884E68093410208
:100A7000089540913C0250913D0220913A023091FC
:100A80003B0242175307B4F49091E8009570E1F3EC
:100A90009091E80092FD19C08093F10080913C0292
:100AA00090913D0201968F739927892B19F48EEF4F
:100AB0008093E80080913C0290913D0201969093D2
:100AC0003D0280933C0281E0089580E00895CF923A
:100AD000DF92EF92FF920F931F93CF93DF931F92BA
:100AE000CDB7DEB7082F162FF42E862F880F8E5F16
:100AF00099830E94390583E00E943905E02EC02EBB
:100B00009981D92E8C2D8E19811798F4F601F7FE54
:100B100002C0849101C080810E943905082F80E0C5
:100B20000E9439058023FFEFCF1ADF0A8111EACF37
:100B300001C081E00F90DF91CF911F910F91FF9045
:100B4000EF90DF90CF9008958091D70081608093DF
:100B5000D70080EA8093D80089B5806189BD89B5C6
:100B6000826089BD09B400FEFDCF61E070E080E0E5
:100B700090E00E9402038091D8008F7C8061809376
:100B8000D8008091E000807F8093E0000895CF93AB
:100B9000DF931F92CDB7DEB71982CE0101960E9476
:100BA000DD030E94E009BE016F5F7F4F0E9459097B
:100BB00089810F90DF91CF9108952FB7FC01208399
:100BC000F89467706093E9000895CF93DF931F92C4
:100BD000CDB7DEB7682FCE0101960E94DD0580916A
:100BE000F20099819FBF0F90DF91CF910895FF92FE
:100BF0000F931F93CF93DF9300D0CDB7DEB7F62EC0
:100C00008A0190914002992311F057FF03C08FEFA2
:100C10009FEF2BC0682FCE0101967A830E94DD05DD
:100C20008091F20090E0A8017A81801791070CF47E
:100C3000AC01EF2DF72FF40E84E6FE1639F028985C
:100C4000809341029091F1009193F7CF41155105A6
:100C500021F08091F200882321F089818FBFCA01A1
:100C600004C08BE68093E800F8CF0F900F90DF91DF
:100C7000CF911F910F91FF900895CF93DF931F9213
:100C8000CDB7DEB741E050E0BE016F5F7F4F0E94FD
:100C9000F705019719F4898190E002C08FEF9FEF6B
:100CA0000F90DF91CF910895CF93DF931F92CDB72F
:100CB000DEB7682FCE0101960E94DD059091E80015
:100CC000892F807295FF04C09091F20080E4891B07
:100CD00099819FBF0F90DF91CF9108956F927F927E
:100CE0008F929F92AF92BF92CF92DF92EF92FF923C
:100CF0000F931F93CF93DF931F92CDB7DEB7782E5C
:100D00007B01C42EB52E80914002882369F0042F08
:100D1000152F8AEFD82E872D8072982E9AE3A92E50
:100D2000872D8074882E11C08FEF9FEF57C0872DBD
:100D30000E945406682E81110CC0DA94A9F361E078
:100D400070E080E090E00E9402030115110579F740
:100D50003BC0282F30E0021713070CF4602E672DDC
:100D6000CE0101960E94DD058091E80085FF29C033
:100D7000262D30E0021B130B992039F06A948FEF77
:100D80006816B1F01092F100F9CFF701862D77FEC9
:100D900007C0815058F094919093F1003196F9CFAB
:100DA000815020F091919093F100FACFE20EF31E62
:100DB0008091E80085FF0FC00115110511F4811025
:100DC0000AC089818FBFC1CF5D9884E680934202BB
:100DD0008C2D9B2D03C0A092E800F3CF0F90DF91E4
:100DE000CF911F910F91FF90EF90DF90CF90BF9028
:100DF000AF909F908F907F906F9008951092E90030
:100E000010923D0210923C0290933B0280933A0272
:100E10000895CF92DF92FF920F931F93CF93DF93AA
:100E200000D0CDB7DEB7F82E8A016B010115110590
:100E3000B1F0F601F7FE02C0849101C080814983C0
:100E40005A830E94390501501109FFEFCF1ADF0ABA
:100E500049815A818111EACF8FEF9FEF01C0CA010A
:100E60000F900F90DF91CF911F910F91FF90DF9026
:100E7000CF9008951F93CF93DF931F92CDB7DEB726
:100E8000162F2091E80022FFFCCF612F79830E946A
:100E90002C058BEF8093E800812F7981972F0F909D
:100EA000DF91CF911F9108951F920F920FB60F926D
:100EB0001124DF92EF92FF920F931F932F933F9392
:100EC0004F935F936F937F938F939F93AF93BF9352
:100ED000EF93FF93CF93DF93CDB7DEB76C97DEBF71
:100EE000CDBF1092E9008091E80083FF23C168E044
:100EF000CE0145960E942C0582EF8093E8003D8943
:100F000037FF05C08091E80080FFFCCF03C08EEF63
:100F10008093E800832F807609F0F0C02E894F89F6
:100F2000D88C21110CC0303829F480913F02809375
:100F3000F10002C01092F1001092F100F4C0842F71
:100F400090E09D29213049F43111EDC0019709F05D
:100F5000EAC080913F028D7F0AC0233059F43111DD
:100F6000E2C0019709F0DFC080913F028260809368
:100F70003F02D9C0253041F48091E80080FFFCCFCA
:100F800040684093E300CFC0263009F08DC0EB8C61
:100F9000FC8C22E0D2122CC080E090E00E94FE0681
:100FA0000E94C70599E08E010F5F1F4FF801292F9E
:100FB00011922A95E9F79983DA8291E09E8390EA6B
:100FC00098879AEF998720913C0230913D02275FE4
:100FD0003F4F3C832B838D83C7010E94FE0649E06F
:100FE00050E0B80180E00E9409070E94C7059BC03D
:100FF000C7010E94FE060E94E009BE016B5E7F4FA2
:101000000E948209009719F00CF08DC090C081E019
:10101000D8120EC08B8D9C8D089719F481E08093B7
:1010200039028091390281112FC060E071E031C036
:10103000E3E0DE127CC08F89882349F1823029F4F5
:1010400040E860E18EE191E01CC0813029F440E885
:101050006BE082E191E015C0833009F068C00E9426
:10106000E0098E010F5F1F4FB8010E94A109F8012E
:1010700001900020E9F73197E01BF10B40E06E2F63
:10108000C8010E9467054DC06EEE70E002C06FE2BD
:1010900071E06115710509F44AC0FB01449150E00B
:1010A00080E80E9409073FC0273009F440C028307B
:1010B00021F481E08093F10036C02930A1F533702E
:1010C000B1F5EDE0F1E081E021E036E39081992394
:1010D00061F08093E9002093EB0091919093EC00F4
:1010E0003093ED008F5F873089F78EE78093EA00B9
:1010F0001092EA008F898093400215C08B8D9C8DE1
:101100000E94FE06898D811105C0CE0145960E9480
:10111000E80307C00E94E009BE016B5E7F4F0E949A
:10112000C009882321F08EEF8093E80003C081E29C
:101130008093EB006C960FB6F894DEBF0FBECDBF68
:10114000DF91CF91FF91EF91BF91AF919F918F91DF
:101150007F916F915F914F913F912F911F910F91CF
:10116000FF90EF90DF900F900FBE0F901F9018959B
:101170008093E9008091F200882319F08AE380933C
:10118000E80008951F920F920FB60F9211242F932B
:101190003F934F935F936F937F938F939F93AF93FF
:1011A000BF93CF93EF93FF93C091E1008091E10053
:1011B000837F8093E1008093E100C3FF0FC0109212
:1011C000E90081E08093EB001092EC0082E38093D1
:1011D000ED001092400288E08093F000C2FF19C039
:1011E00083E00E94B80880914202882339F0809100
:1011F0004202815080934202882389F1809141020A
:10120000882339F0809141028150809341028823E4
:1012100041F1C4FF10C08091E2008E7E8160809316
:10122000E2008091E1008F7E8093E10080913E0298
:101230008E7E806111C0C0FF16C08091E2008E7E5C
:1012400080618093E2008091E1008E7E8093E100D6
:1012500080913E028E7E816080933E0204C05D9A42
:10126000CDCF289AD6CFFF91EF91CF91BF91AF917B
:101270009F918F917F916F915F914F913F912F91AE
:101280000F900FBE0F901F90189510924002109271
:101290003F0210923E020E94A405E1EEF0E0808140
:1012A0008E7E80838DE08093E200559A209A089587
:1012B0000895EF92FF920F931F93CF93DF937B01DB
:1012C000FC01C281D38100E010E0209781F0E88129
:1012D000F9810280F381E02DB701CE01099597FDD8
:1012E00008C0080F191F0884D985C02DEECFC8018A
:1012F00002C08FEF9FEFDF91CF911F910F91FF9071
:10130000EF9008950F931F93CF93DF938B01FC0110
:10131000C281D381209771F0E881F9810480F58141
:10132000E02DB801CE010995009731F40884D985E4
:10133000C02DF0CF80E090E0DF91CF911F910F9111
:1013400008950F931F93CF93DF938B01FC01C2810C
:10135000D381209771F0E881F9810680F781E02D33
:10136000B801CE010995080F111D0884D985C02D3B
:10137000F0CFF8011082DF91CF911F910F91089566
:101380000F931F93CF93DF938B01FC01C281D38115
:10139000209771F0E881F9810190F081E02DB8018A
:1013A000CE010995811106C00884D985C02DF0CFE2
:1013B00080E001C081E0DF91CF911F910F910895EE
:1013C0008091470281110DC082E08093430284E046
:1013D00080934402109246021092450281E080936D
:1013E000470283E492E00895A1E21A2EAA1BBB1BD8
:1013F000FD010DC0AA1FBB1FEE1FFF1FA217B307E1
:10140000E407F50720F0A21BB30BE40BF50B661FF6
:10141000771F881F991F1A9469F7609570958095BA
:1014200090959B01AC01BD01CF010895EE0FFF1F08
:0C1430000590F491E02D0994F894FFCF92
:10143C00FFFFFFFF00E100000000000000C1808101
:10144C00000000564D4450435F005F564D445043DE
:10145C000D0A004572726F723A20417474656D709A
:10146C007420746F20736574206120726561642D23
:10147C006F6E6C79207661726961626C65206F7237
:10148C0020646174612074797065206E6F742073B0
:10149C007570706F727465640D0A00564D44505629
:1014AC005F317C315F564D4450560D0A00564D4409
:1014BC0050455F31007C005F564D4450450D0A008D
:1014CC00000000008003C703AA03BA039603A70316
:00000001FF
