:100000000C94E6000C940E010C940E010C940E015D
:100010000C940E010C940E010C940E010C940E0124
:100020000C940E010C940E010C94CA090C945C08FB
:100030000C940E010C940E010C940E010C940E0104
:100040000C940E010C940E010C940E010C940E01F4
:100050000C940E010C940E010C940E010C94E5020C
:100060000C940E010C940E010C940E010C940E01D4
:100070000C940E010C940E010C940E010C940E01C4
:100080000C940E010C940E010C940E010C940E01B4
:100090000C940E010C940E010C940E010C940E01A4
:1000A0000C940E010C940E010C940E01F403F70352
:1000B000E603EA03F003180418041804FB03FF0323
:1000C000030409040D0418041304000000020009CD
:1000D0000F0000030401000C0000000000000000FD
:1000E0000000000000000000000408020110408031
:1000F000401020408040800802040180402010020F
:10010000011080102040402004040404040304056E
:1001100002020202040302020202060606060606A4
:100120000404020202040400000000250028002B41
:10013000002E00310000000000240027002A002DBE
:10014000003000080B000202020100090400000157
:10015000020200000524001001052401010104240D
:10016000020605240600010705810310004009046A
:100170000100020A00000007050202400000070516
:10018000830240000012010002EF020140412336C9
:100190008000010102030112010002000000404141
:1001A00023368000010102030141726475696E6F9C
:1001B000204C4C430041726475696E6F204C656F32
:1001C0006E6172646F00040309047E0511241FBE72
:1001D000CFEFDAE0DEBFCDBF11E0A0E0B1E0ECE4AC
:1001E000F6E102C005900D92A03AB107D9F722E0DE
:1001F000A0EAB1E001C01D92AF34B207E1F711E00F
:10020000CCECD1E004C02297FE010E94200BCA3C36
:10021000D107C9F70E949C050C94240B0C94000094
:1002200040ED57E060E070E088EA91E00E945802FB
:1002300020E032EC41E050E068EE71E088EA91E0C5
:100240000E94110288EA91E00E940E0263E171E0CF
:100250008091D9019091DA010E94C5056AE070E0B1
:1002600080E090E00E945E0341E060E088EA91E077
:100270000E94CA0261E08DE00C941904CF92DF92D3
:10028000EF92FF920F931F930E942F03672B682B0F
:10029000692B41F40E942F0362307105810591059D
:1002A00008F478C088EA91E00E94E4016093A0011C
:1002B0007093A1018093A2019093A3010091A401E6
:1002C0001091A5012091A6013091A7016017710737
:1002D0008207930740F46093A4017093A501809373
:1002E000A6019093A7010091A4011091A50120916E
:1002F000A6013091A7016B017C01C01AD10AE20A64
:10030000F30A970186010A3F11052105310508F41A
:1003100041C06093A4017093A5018093A6019093BE
:10032000A70188EA91E00E940E0265E271E08091E7
:10033000D9019091DA010E94C5056DE271E08091CA
:10034000D9019091DA010E94C5050E942F03AB01EB
:10035000BC012AE030E08091D9019091DA010E943D
:1003600020066FE271E08091D9019091DA010E943C
:10037000C50565E070E080E090E00E945E036AE001
:1003800070E080E090E00E945E0361E088EA91E026
:100390000E948C0261E08DE00E94520464EF71E0E3
:1003A00080E090E00E945E0360E08DE00E945204D5
:1003B00060ED77E080E090E01F910F91FF90EF906B
:1003C000DF90CF900C945E030C942F030F931F9338
:1003D000CF93DF93EC01662359F00E942F036983CA
:1003E0007A838B839C83DF91CF911F910F91089526
:1003F0000E942F0309811A812B813C81601B710BA4
:10040000820B930B623371058105910530F763E030
:1004100070E080E090E00E945E03EACF60E00C9420
:10042000E601CF92DF92EF92FF920F931F93CF934B
:10043000DF9300D000D0CDB7DEB78C017B01FC018B
:1004400072AB61AB8BE1C82ED12CC70129833A83F3
:100450004B835C830E946F0529813A814B815C81CB
:10046000811113C0F1E0CF1AD10879F064E670E091
:1004700080E090E029833A834B835C830E945E0393
:100480005C814B813A812981E0CFBA01A901F80151
:1004900081A992A90F900F900F900F90DF91CF91AB
:1004A0001F910F91FF90EF90DF90CF900C94690512
:1004B000FC0113AA14AA15AA16AA11821282138289
:1004C0001482411551056105710521F0CB01BA0176
:1004D0000C945E0308951F93CF93DF93EC01162FC6
:1004E00068E371E089A99AA90E94C5054AE050E035
:1004F000612F89A99AA90E942D066FE371E089A94D
:100500009AA90E94C50562E370E080E090E0DF9167
:10051000CF911F910C945E031F93CF93DF93EC0157
:10052000162F8D81882389F189A99AA9DC01ED9183
:10053000FC910480F581E02D0995892BA9F307C072
:100540002637310519F12835310509F41D8289A9AD
:100550009AA9DC01ED91FC910480F581E02D0995CB
:100560001816190694F489A99AA9DC01ED91FC9159
:100570000680F781E02D09959C013327233631054C
:10058000F9F6612FCE010E946B0283E6DF91CF91D5
:100590001F9108950F931F93CF93DF931F92CDB7B1
:1005A000DEB78C01662349F081E0F801858360E0C5
:1005B000C80149830E948C024981F80145830F904C
:1005C000DF91CF911F910F9108951F920F920FB657
:1005D0000F9211242F933F938F939F93AF93BF93C9
:1005E0008091E0019091E101A091E201B091E301DD
:1005F0003091DF0123E0230F2D3720F40196A11D58
:10060000B11D05C026E8230F0296A11DB11D209340
:10061000DF018093E0019093E101A093E201B093A8
:10062000E3018091E4019091E501A091E601B09190
:10063000E7010196A11DB11D8093E4019093E501AE
:10064000A093E601B093E701BF91AF919F918F9185
:100650003F912F910F900FBE0F901F9018952FB7BD
:10066000F8946091E0017091E1018091E201909134
:10067000E3012FBF08953FB7F8948091E401909172
:10068000E501A091E601B091E70126B5A89B05C060
:100690002F3F19F00196A11DB11D3FBF6627782F8E
:1006A000892F9A2F620F711D811D911D42E0660FE7
:1006B000771F881F991F4A95D1F70895CF92DF922F
:1006C000EF92FF92CF93DF936B017C010E943B037B
:1006D000EB01C114D104E104F10489F00E94600A25
:1006E0000E943B036C1B7D0B683E734090F381E0DE
:1006F000C81AD108E108F108C851DC4FEACFDF91F0
:10070000CF91FF90EF90DF90CF900895789484B5CB
:10071000826084BD84B5816084BD85B5826085BDFD
:1007200085B5816085BDEEE6F0E0808181608083E3
:10073000E1E8F0E0108280818260808380818160C6
:100740008083E0E8F0E0808181608083E1E9F0E08F
:10075000808182608083808181608083E0E9F0E035
:10076000808181608083E1ECF0E08081846080831F
:10077000808182608083808181608083E3ECF0E00F
:10078000808181608083E0ECF0E080818260808302
:10079000E2ECF0E0808181608083EAE7F0E0808134
:1007A0008460808380818260808380818160808397
:1007B000808180688083089590E0FC013197EF305C
:1007C000F105B0F5EA5AFF4F0C941E0B80918000A2
:1007D0008F7703C0809180008F7D80938000089583
:1007E00080918000877FF9CF84B58F7702C084B570
:1007F0008F7D84BD0895809190008F7707C0809190
:1008000090008F7D03C080919000877F809390003F
:1008100008958091C0008F7703C08091C0008F7DC4
:100820008093C00008958091C200877F8093C200AA
:100830000895CF93DF9390E0FC01E751FF4F24919F
:10084000FC01E85FFE4F8491882349F190E0880F16
:10085000991FFC01EB5CFE4FA591B491895D9E4F01
:10086000FC01C591D4919FB7611108C0F8948C9197
:10087000209582238C93888182230AC0623051F4B0
:10088000F8948C91322F309583238C938881822B1E
:10089000888304C0F8948C91822B8C939FBFDF9146
:1008A000CF9108950F931F93CF93DF931F92CDB7EE
:1008B000DEB7282F30E0F901E653FF4F8491F901AC
:1008C000E751FF4F1491F901E85FFE4F04910023B7
:1008D000C9F0882321F069830E94DC036981E02F3D
:1008E000F0E0EE0FFF1FE95DFE4FA591B4919FB7B9
:1008F000F8948C91611103C01095812301C0812B64
:100900008C939FBF0F90DF91CF911F910F9108950E
:10091000CF93DF931F92CDB7DEB76983DC01ED91F2
:10092000FC910280F381E02D41E050E0BE016F5F59
:100930007F4F09950F90DF91CF910895CF93DF936B
:10094000EC018C859D8597FF05C082E00E944507DC
:100950009D878C878C859D85DF91CF91089583E05D
:100960000C94C009FC018485958597FD06C082E042
:100970000E94ED0690E00196089582E00E94ED0647
:1009800090E00895FC018485958597FD05C02FEFC3
:100990003FEF35872487089582E00C944507CF9375
:1009A000DF93EC0180910B01882331F083E00E94FA
:1009B00076071816190634F081E090E09B838A834D
:1009C00080E090E0DF91CF910895FC0120812E5FBF
:1009D000208342E450E063E471E080E80C94110865
:1009E000FC0121818081813A59F4213209F05CC0F7
:1009F00047E050E064E071E080E00E94110867C0C9
:100A0000813209F051C0233289F4838190E0982F1C
:100A100088273281832BA0E0B0E08093000190937F
:100A20000101A0930201B09303010FC0203239F4F9
:100A300067E070E084E091E00E9442080AC0223240
:100A400021F4828180930B0104C02D7F203209F0B4
:100A50003EC08091040190910501A0910601B091E2
:100A60000701803B9440A105B10501F580910B0180
:100A700080FD1CC080910008909101089093FF0AAE
:100A80008093FE0A87E797E7909301088093000818
:100A90002BE088E190E00FB6F894A8958093600071
:100AA0000FBE2093600013C080E0089588E10FB668
:100AB000F89480936000109260000FBEA89580911A
:100AC000FE0A9091FF0A909301088093000881E04C
:100AD00008952FEF3FEFFC01358724870895CF93CA
:100AE000C0910B016AE070E080E090E00E945E033C
:100AF00081E0C11101C080E0CF9108951092EB0117
:100B00001092EA0188EE93E0A0E0B0E08093EC015F
:100B10009093ED01A093EE01B093EF0184E991E091
:100B20009093E9018093E8018FEF9FEF9093F50197
:100B30008093F401089508950E9486030E949B0506
:100B400088E392E00E944D0A0E941001C0E0D0E0CC
:100B50000E943E012097E1F30E940000F9CF611549
:100B6000710581F0DB010D900020E9F7AD014150E6
:100B70005109461B570BDC01ED91FC910280F3817A
:100B8000E02D099480E090E008950C94AF058F92D9
:100B90009F92AF92BF92CF92DF92EF92FF920F930C
:100BA0001F93CF93DF93CDB7DEB7A1970FB6F8941D
:100BB000DEBF0FBECDBF7C01C42EE52FCB01D22EF0
:100BC00019A221E02D1510F02AE0D22E8E010F5D22
:100BD0001F4F8D2C912CA12CB12C6C2D7E2FA5019B
:100BE00094010E94FC0A8C2DD29E80191124015080
:100BF00011098A3014F4805D01C0895CF80180839A
:100C0000211531054105510521F0C22EE32FCA01FE
:100C1000E4CFB801C7010E94AF05A1960FB6F894C2
:100C2000DEBF0FBECDBFDF91CF911F910F91FF901F
:100C3000EF90DF90CF90BF90AF909F908F900895EE
:100C40002115310541F4DC01ED91FC910190F08119
:100C5000E02D642F09940C94C7059A01462F50E0AB
:100C600060E070E00C942006615030F02091F100BB
:100C7000FC0120830196F8CF289884E680934102F6
:100C8000089540913C0250913D0220913A023091EA
:100C90003B0242175307B4F49091E8009570E1F3DA
:100CA0009091E80092FD19C08093F10080913C0280
:100CB00090913D0201968F739927892B19F48EEF3D
:100CC0008093E80080913C0290913D0201969093C0
:100CD0003D0280933C0281E0089580E00895CF9228
:100CE000DF92EF92FF920F931F93CF93DF931F92A8
:100CF000CDB7DEB7082F162FF42E862F880F8E5F04
:100D000099830E94410683E00E944106E02EC02E96
:100D10009981D92E8C2D8E19811798F4F601F7FE42
:100D200002C0849101C080810E944106082F80E0AA
:100D30000E9441068023FFEFCF1ADF0A8111EACF1C
:100D400001C081E00F90DF91CF911F910F91FF9033
:100D5000EF90DF90CF9008958091D70081608093CD
:100D6000D70080EA8093D80089B5806189BD89B5B4
:100D7000826089BD09B400FEFDCF61E070E080E0D3
:100D800090E00E945E038091D8008F7C8061809308
:100D9000D8008091E000807F8093E0000895CF9399
:100DA000DF931F92CDB7DEB71982CE0101960E9464
:100DB000E5040E94E80ABE016F5F7F4F0E94610A4E
:100DC00089810F90DF91CF9108952FB7FC01208387
:100DD000F89467706093E9000895CF93DF931F92B2
:100DE000CDB7DEB7682FCE0101960E94E50680914F
:100DF000F20099819FBF0F90DF91CF910895FF92EC
:100E00000F931F93CF93DF9300D0CDB7DEB7F62EAD
:100E10008A0190914002992311F057FF03C08FEF90
:100E20009FEF2BC0682FCE0101967A830E94E506C2
:100E30008091F20090E0A8017A81801791070CF46C
:100E4000AC01EF2DF72FF40E84E6FE1639F028984A
:100E5000809341029091F1009193F7CF4115510594
:100E600021F08091F200882321F089818FBFCA018F
:100E700004C08BE68093E800F8CF0F900F90DF91CD
:100E8000CF911F910F91FF900895CF93DF931F9201
:100E9000CDB7DEB741E050E0BE016F5F7F4F0E94EB
:100EA000FF06019719F4898190E002C08FEF9FEF50
:100EB0000F90DF91CF910895CF93DF931F92CDB71D
:100EC000DEB7682FCE0101960E94E5069091E800FA
:100ED000892F807295FF04C09091F20080E4891BF5
:100EE00099819FBF0F90DF91CF9108956F927F926C
:100EF0008F929F92AF92BF92CF92DF92EF92FF922A
:100F00000F931F93CF93DF931F92CDB7DEB7782E49
:100F10007B01C42EB52E80914002882369F0042FF6
:100F2000152F8AEFD82E872D8072982E9AE3A92E3E
:100F3000872D8074882E11C08FEF9FEF57C0872DAB
:100F40000E945C07682E81110CC0DA94A9F361E05D
:100F500070E080E090E00E945E030115110579F7D2
:100F60003BC0282F30E0021713070CF4602E672DCA
:100F7000CE0101960E94E5068091E80085FF29C018
:100F8000262D30E0021B130B992039F06A948FEF65
:100F90006816B1F01092F100F9CFF701862D77FEB7
:100FA00007C0815058F094919093F1003196F9CF99
:100FB000815020F091919093F100FACFE20EF31E50
:100FC0008091E80085FF0FC00115110511F4811013
:100FD0000AC089818FBFC1CF5D9884E680934202A9
:100FE0008C2D9B2D03C0A092E800F3CF0F90DF91D2
:100FF000CF911F910F91FF90EF90DF90CF90BF9016
:10100000AF909F908F907F906F9008951092E9001D
:1010100010923D0210923C0290933B0280933A0260
:101020000895CF92DF92FF920F931F93CF93DF9398
:1010300000D0CDB7DEB7F82E8A016B01011511057E
:10104000B1F0F601F7FE02C0849101C080814983AE
:101050005A830E94410601501109FFEFCF1ADF0A9F
:1010600049815A818111EACF8FEF9FEF01C0CA01F8
:101070000F900F90DF91CF911F910F91FF90DF9014
:10108000CF9008951F93CF93DF931F92CDB7DEB714
:10109000162F2091E80022FFFCCF612F79830E9458
:1010A00034068BEF8093E800812F7981972F0F9082
:1010B000DF91CF911F9108951F920F920FB60F925B
:1010C0001124DF92EF92FF920F931F932F933F9380
:1010D0004F935F936F937F938F939F93AF93BF9340
:1010E000EF93FF93CF93DF93CDB7DEB76C97DEBF5F
:1010F000CDBF1092E9008091E80083FF23C168E032
:10110000CE0145960E94340682EF8093E8003D8927
:1011100037FF05C08091E80080FFFCCF03C08EEF51
:101120008093E800832F807609F0F0C02E894F89E4
:10113000D88C21110CC0303829F480913F02809363
:10114000F10002C01092F1001092F100F4C0842F5F
:1011500090E09D29213049F43111EDC0019709F04B
:10116000EAC080913F028D7F0AC0233059F43111CB
:10117000E2C0019709F0DFC080913F028260809356
:101180003F02D9C0253041F48091E80080FFFCCFB8
:1011900040684093E300CFC0263009F08DC0EB8C4F
:1011A000FC8C22E0D2122CC080E090E00E94060865
:1011B0000E94CF0699E08E010F5F1F4FF801292F83
:1011C00011922A95E9F79983DA8291E09E8390EA59
:1011D00098879AEF998720913C0230913D02275FD2
:1011E0003F4F3C832B838D83C7010E94060849E053
:1011F00050E0B80180E00E9411080E94CF069BC019
:10120000C7010E9406080E94E80ABE016B5E7F4F7C
:101210000E948A0A009719F00CF08DC090C081E0FE
:10122000D8120EC08B8D9C8D089719F481E08093A5
:1012300039028091390281112FC067E971E031C014
:10124000E3E0DE127CC08F89882349F1823029F4E3
:1012500040E860E185EB91E01CC0813029F440E872
:101260006BE089EA91E015C0833009F068C00E9404
:10127000E80A8E010F5F1F4FB8010E94A90AF8010A
:1012800001900020E9F73197E01BF10B40E06E2F51
:10129000C8010E946F064DC065E871E002C066ECAF
:1012A00071E06115710509F44AC0FB01449150E0F9
:1012B00080E80E9411083FC0273009F440C0283060
:1012C00021F481E08093F10036C02930A1F533701C
:1012D000B1F5EDE0F1E081E021E036E39081992382
:1012E00061F08093E9002093EB0091919093EC00E2
:1012F0003093ED008F5F873089F78EE78093EA00A7
:101300001092EA008F898093400215C08B8D9C8DCE
:101310000E940608898D811105C0CE0145960E9464
:10132000F00407C00E94E80ABE016B5E7F4F0E9476
:10133000C80A882321F08EEF8093E80003C081E281
:101340008093EB006C960FB6F894DEBF0FBECDBF56
:10135000DF91CF91FF91EF91BF91AF919F918F91CD
:101360007F916F915F914F913F912F911F910F91BD
:10137000FF90EF90DF900F900FBE0F901F90189589
:101380008093E9008091F200882319F08AE380932A
:10139000E80008951F920F920FB60F9211242F9319
:1013A0003F934F935F936F937F938F939F93AF93ED
:1013B000BF93CF93EF93FF93C091E1008091E10041
:1013C000837F8093E1008093E100C3FF0FC0109200
:1013D000E90081E08093EB001092EC0082E38093BF
:1013E000ED001092400288E08093F000C2FF19C027
:1013F00083E00E94C00980914202882339F08091E5
:101400004202815080934202882389F180914102F7
:10141000882339F0809141028150809341028823D2
:1014200041F1C4FF10C08091E2008E7E8160809304
:10143000E2008091E1008F7E8093E10080913E0286
:101440008E7E806111C0C0FF16C08091E2008E7E4A
:1014500080618093E2008091E1008E7E8093E100C4
:1014600080913E028E7E816080933E0204C05D9A30
:10147000CDCF289AD6CFFF91EF91CF91BF91AF9169
:101480009F918F917F916F915F914F913F912F919C
:101490000F900FBE0F901F9018951092400210925F
:1014A0003F0210923E020E94AC06E1EEF0E0808125
:1014B0008E7E80838DE08093E200559A209A089575
:1014C0000895EF92FF920F931F93CF93DF937B01C9
:1014D000FC01C281D38100E010E0209781F0E88117
:1014E000F9810280F381E02DB701CE01099597FDC6
:1014F00008C0080F191F0884D985C02DEECFC80178
:1015000002C08FEF9FEFDF91CF911F910F91FF905E
:10151000EF9008950F931F93CF93DF938B01FC01FE
:10152000C281D381209771F0E881F9810480F5812F
:10153000E02DB801CE010995009731F40884D985D2
:10154000C02DF0CF80E090E0DF91CF911F910F91FF
:1015500008950F931F93CF93DF938B01FC01C281FA
:10156000D381209771F0E881F9810680F781E02D21
:10157000B801CE010995080F111D0884D985C02D29
:10158000F0CFF8011082DF91CF911F910F91089554
:101590000F931F93CF93DF938B01FC01C281D38103
:1015A000209771F0E881F9810190F081E02DB80178
:1015B000CE010995811106C00884D985C02DF0CFD0
:1015C00080E001C081E0DF91CF911F910F910895DC
:1015D0008091470281110DC082E08093430284E034
:1015E00080934402109246021092450281E080935B
:1015F000470283E492E00895A1E21A2EAA1BBB1BC6
:10160000FD010DC0AA1FBB1FEE1FFF1FA217B307CE
:10161000E407F50720F0A21BB30BE40BF50B661FE4
:10162000771F881F991F1A9469F7609570958095A8
:1016300090959B01AC01BD01CF010895EE0FFF1FF6
:0C1640000590F491E02D0994F894FFCF80
:10164C00FFFFFFFF00E100000000000000C18081EF
:10165C00000000564D4450565F317C315F564D446E
:10166C0050560D0A00564D4450455F31007C005FCA
:10167C00564D4450450D0A00564D4450435F005F93
:10168C00564D4450430D0A004572726F723A204118
:10169C007474656D707420746F2073657420612090
:1016AC00726561642D6F6E6C79207661726961620E
:1016BC006C65206F72206461746120747970652090
:1016CC006E6F7420737570706F727465640D0A00A0
:1016DC00000000008804CF04B204C2049E04AF04CE
:00000001FF
